{
  "contractName": "InfoContract",
  "abi": [
    {
      "constant": false,
      "inputs": [
        {
          "name": "name",
          "type": "string"
        },
        {
          "name": "age",
          "type": "uint256"
        }
      ],
      "name": "set",
      "outputs": [],
      "payable": false,
      "stateMutability": "nonpayable",
      "type": "function"
    },
    {
      "constant": true,
      "inputs": [],
      "name": "get",
      "outputs": [
        {
          "name": "",
          "type": "string"
        },
        {
          "name": "",
          "type": "uint256"
        }
      ],
      "payable": false,
      "stateMutability": "view",
      "type": "function"
    }
  ],
  "bytecode": "0x608060405234801561001057600080fd5b506102fa806100206000396000f30060806040526004361061004c576000357c0100000000000000000000000000000000000000000000000000000000900463ffffffff1680636d4ce63c146100515780638a42ebe9146100e8575b600080fd5b34801561005d57600080fd5b5061006661015b565b6040518080602001838152602001828103825284818151815260200191508051906020019080838360005b838110156100ac578082015181840152602081019050610091565b50505050905090810190601f1680156100d95780820380516001836020036101000a031916815260200191505b50935050505060405180910390f35b3480156100f457600080fd5b50610159600480360381019080803590602001908201803590602001908080601f016020809104026020016040519081016040528093929190818152602001838380828437820191505050505050919291929080359060200190929190505050610207565b005b6060600080600154818054600181600116156101000203166002900480601f0160208091040260200160405190810160405280929190818152602001828054600181600116156101000203166002900480156101f85780601f106101cd576101008083540402835291602001916101f8565b820191906000526020600020905b8154815290600101906020018083116101db57829003601f168201915b50505050509150915091509091565b816000908051906020019061021d929190610229565b50806001819055505050565b828054600181600116156101000203166002900490600052602060002090601f016020900481019282601f1061026a57805160ff1916838001178555610298565b82800160010185558215610298579182015b8281111561029757825182559160200191906001019061027c565b5b5090506102a591906102a9565b5090565b6102cb91905b808211156102c75760008160009055506001016102af565b5090565b905600a165627a7a7230582043f3a94a39246abc07d80996cbaa88ce6f5bc3c109f5a656c7cc1c69e5265b9a0029",
  "source": "pragma solidity ^0.4.23;\n\ncontract InfoContract {\n\n   string fName;\n   uint fAge;\n\n   function set(string name, uint age) public {\n       fName = name;\n       fAge = age;\n   }\n\n   function get() public constant returns (string, uint) {\n       return (fName, fAge);\n   }\n}\n",
  "sourcePath": "/home/hw/testone/tru-info/contracts/InfoContract.sol",
  "compiler": {
    "name": "solc",
    "version": "0.4.23+commit.124ca40d.Emscripten.clang"
  },
  "schemaVersion": "2.0.0",
  "updatedAt": "2018-07-05T08:15:34.636Z"
}